:020000042000DA
:107000000248854600F04CF8FFE7FEE700800020CC
:1070100001707047018070470160704700787047C9
:10702000008870470068704770470047784670478F
:1070300070B5050001240648FFF7F0FF0442FAD0BE
:10704000FF2104482940FFF7E3FF70BC01BC004763
:10705000181C0042281C004270B5060020240F2591
:107060003300043CE3402B4018003030092B01D999
:1070700037331800FFF7DCFF002CF1D12020FFF799
:10708000D7FF70BC01BC004710B5FFF7E5FF0D202E
:10709000FFF7CEFF0A20FFF7CBFF10BC01BC004773
:1070A000F8B55F4656464D464446A848F0B4FFF74B
:1070B000B9FF0100A64BA5481940FFF7ADFFA54851
:1070C000FFF7B0FF84230100A2481943FFF7A4FF94
:1070D000A149A248FFF7A0FFA149A248FFF79AFFE4
:1070E0000121A148FFF794FF0121A048FFF790FF7D
:1070F00033219F48FFF78CFF9E48FFF793FF00283E
:10710000FAD100219C48FFF787FF9A48FFF78AFFD2
:107110000028FAD101219848FFF77EFF9548FFF734
:1071200081FF0028FAD195499348FFF775FF9148F0
:10713000FFF778FF0028FAD1C02191488902FFF7B4
:107140006BFF8C48FFF76EFF0028FAD18D498E48FF
:10715000FFF760FF8748FFF765FF0028FAD18B49EA
:107160008548FFF759FF8348FFF75CFF0028FAD1F5
:107170008748FFF789FFFFF759FFFFF785FF492091
:10718000FFF756FF4820FFF753FF4520FFF750FF5A
:107190005820FFF74DFF0D20FFF74AFF0A20FFF7A9
:1071A00047FF00239B469A4698467A4B00260027C5
:1071B0000025994604247848FFF730FF0442FAD0AE
:1071C0007648FFF72BFFFF2303403A2B73D00A2B9F
:1071D0003BD00D2B39D0DF22104047286DD05A28E4
:1071E00000D190E0222DE5D84946AA008A5897465A
:1071F0003601392B00D9073B0F2213401E433604BA
:10720000360C0135D6E742461201392B00D9073B2F
:107210000F210B4013431B041B0C334398460135CD
:10722000C8E73F01392B00D9073B0F2213403B43EE
:10723000FF271F40012F00D183E0002F00D17EE007
:10724000022F5ED01E25042FB4D00025B2E73F01E7
:10725000392B00D9073B0F2213403B43FF2708255A
:107260001F40A7E736040025A4E752461101392B39
:1072700000D9073B0F2213400B439A46152DC0D16E
:10728000102019061A0EC3410A4319061B0E0B43A0
:10729000C3411343190040469A46FFF7BDFE5B46C3
:1072A000434453449B4604239C46073DE04481E706
:1072B000360100257EE701257CE73A38FFF7B8FE66
:1072C0002D20FFF7B5FE2D20FFF7B2FE0D20FFF7B2
:1072D000AFFE0A20FFF7ACFE0A20FFF7A9FE02244A
:1072E0002D48FFF79BFE0442FAD02D48FFF79DFE84
:1072F00000203CBC90469946A246AB46F8BC02BC76
:107300000847092556E74D38FFF792FE2D20FFF775
:107310008FFE2D20FFF78CFE0D20FFF789FE0A203F
:10732000FFF786FE0A20FFF783FE02241A48FFF7C4
:1073300075FE0442FAD01B48FFF777FED8E70E250A
:1073400038E75846FFF7A0FE002533E72008004045
:10735000FFFCFFFF2004004005060100040C004074
:1073600019450000020C0040D6440041D7440041BA
:10737000BB4400411C1C0042001C00420400314080
:10738000041C004204C500000C1C004206003140F1
:1073900078563412A8730020181C0042281C0042A2
:0873A0000100002001100000B3
:1073A800B4710020027200200272002006720020D0
:1073B8000672002006720020067200204E7200201D
:1073C80022720020F0710020F0710020F07100207E
:1073D800F0710020B07200206A7200206A720020EA
:1073E8006A7200206A7200206A7200206A720020A5
:1073F8006A7200206A720020B4710020B471002003
:10740800B4710020B4710020B4710020B471002060
:10741800B4710020B4710020F0710020F0710020D8
:0C742800F0710020F07100206472002060
:040000052000700067
:00000001FF
