:020000042000DA
:100000000248854600F012F8FFE7FEE700100020E6
:100010000170704701807047016070470078704739
:1000200000887047006870477047C046802170B5EF
:1000300089021C48FFF7F0FF80211A480905FFF7E5
:10004000EBFF08211848FFF7E7FF802117488902D6
:10005000FFF7E2FF802115480905FFF7DDFF0821C2
:100060001348FFF7D9FF0024124D20000134FFF799
:10007000DBFFAC42F9D180210F488902FFF7CCFFAA
:1000800080210D480905FFF7C7FF08210B48FFF73E
:10009000C3FF0024074D20000134FFF7C5FFAC4229
:1000A000F9D1D2E708440041884400411844004196
:1000B00098440041204E0000144400419444004103
:0400000520000000D7
:00000001FF
