:020000042000DA
:100000000248854600F00CF8FFE7FEE700100020EC
:100010000180704701607047006870477047C046B4
:10002000802170B589021C48FFF7F4FF80211A482F
:100030000905FFF7EFFF08211848FFF7EBFF8021C4
:1000400017488902FFF7E6FF802115480905FFF7E9
:10005000E1FF08211348FFF7DDFF0024124D2000C7
:100060000134FFF7DBFFAC42F9D180210F48890250
:10007000FFF7D0FF80210D480905FFF7CBFF0821CE
:100080000B48FFF7C7FF0024074D20000134FFF79E
:10009000C5FFAC42F9D1D2E7084400418844004191
:1000A0001844004198440041204E0000144400418F
:0400B0009444004133
:0400000520000000D7
:00000001FF
